{
  "_format": "hh-sol-artifact-1",
  "contractName": "Greeter",
  "sourceName": "contracts/Greeter.sol",
  "abi": [
    {
      "inputs": [
        {
          "internalType": "string",
          "name": "_greeting",
          "type": "string"
        }
      ],
      "stateMutability": "nonpayable",
      "type": "constructor"
    },
    {
      "anonymous": false,
      "inputs": [
        {
          "indexed": false,
          "internalType": "string",
          "name": "oldGreeting",
          "type": "string"
        },
        {
          "indexed": false,
          "internalType": "string",
          "name": "newGreeting",
          "type": "string"
        },
        {
          "indexed": false,
          "internalType": "address",
          "name": "changedBy",
          "type": "address"
        }
      ],
      "name": "GreetingChanged",
      "type": "event"
    },
    {
      "inputs": [],
      "name": "getBalance",
      "outputs": [
        {
          "internalType": "uint256",
          "name": "",
          "type": "uint256"
        }
      ],
      "stateMutability": "view",
      "type": "function"
    },
    {
      "inputs": [],
      "name": "greet",
      "outputs": [
        {
          "internalType": "string",
          "name": "",
          "type": "string"
        }
      ],
      "stateMutability": "view",
      "type": "function"
    },
    {
      "inputs": [],
      "name": "greetingCount",
      "outputs": [
        {
          "internalType": "uint256",
          "name": "",
          "type": "uint256"
        }
      ],
      "stateMutability": "view",
      "type": "function"
    },
    {
      "inputs": [],
      "name": "owner",
      "outputs": [
        {
          "internalType": "address",
          "name": "",
          "type": "address"
        }
      ],
      "stateMutability": "view",
      "type": "function"
    },
    {
      "inputs": [
        {
          "internalType": "string",
          "name": "_greeting",
          "type": "string"
        }
      ],
      "name": "setGreeting",
      "outputs": [],
      "stateMutability": "nonpayable",
      "type": "function"
    },
    {
      "stateMutability": "payable",
      "type": "receive"
    }
  ],
  "bytecode": "0x60806040523480156200001157600080fd5b5060405162000f4d38038062000f4d83398181016040528101906200003791906200022c565b8060009081620000489190620004c8565b5033600260006101000a81548173ffffffffffffffffffffffffffffffffffffffff021916908373ffffffffffffffffffffffffffffffffffffffff160217905550600060018190555050620005af565b6000604051905090565b600080fd5b600080fd5b600080fd5b600080fd5b6000601f19601f8301169050919050565b7f4e487b7100000000000000000000000000000000000000000000000000000000600052604160045260246000fd5b6200010282620000b7565b810181811067ffffffffffffffff82111715620001245762000123620000c8565b5b80604052505050565b60006200013962000099565b9050620001478282620000f7565b919050565b600067ffffffffffffffff8211156200016a5762000169620000c8565b5b6200017582620000b7565b9050602081019050919050565b60005b83811015620001a257808201518184015260208101905062000185565b60008484015250505050565b6000620001c5620001bf846200014c565b6200012d565b905082815260208101848484011115620001e457620001e3620000b2565b5b620001f184828562000182565b509392505050565b600082601f830112620002115762000210620000ad565b5b815162000223848260208601620001ae565b91505092915050565b600060208284031215620002455762000244620000a3565b5b600082015167ffffffffffffffff811115620002665762000265620000a8565b5b6200027484828501620001f9565b91505092915050565b600081519050919050565b7f4e487b7100000000000000000000000000000000000000000000000000000000600052602260045260246000fd5b60006002820490506001821680620002d057607f821691505b602082108103620002e657620002e562000288565b5b50919050565b60008190508160005260206000209050919050565b60006020601f8301049050919050565b600082821b905092915050565b600060088302620003507fffffffffffffffffffffffffffffffffffffffffffffffffffffffffffffffff8262000311565b6200035c868362000311565b95508019841693508086168417925050509392505050565b6000819050919050565b6000819050919050565b6000620003a9620003a36200039d8462000374565b6200037e565b62000374565b9050919050565b6000819050919050565b620003c58362000388565b620003dd620003d482620003b0565b8484546200031e565b825550505050565b600090565b620003f4620003e5565b62000401818484620003ba565b505050565b5b8181101562000429576200041d600082620003ea565b60018101905062000407565b5050565b601f82111562000478576200044281620002ec565b6200044d8462000301565b810160208510156200045d578190505b620004756200046c8562000301565b83018262000406565b50505b505050565b600082821c905092915050565b60006200049d600019846008026200047d565b1980831691505092915050565b6000620004b883836200048a565b9150826002028217905092915050565b620004d3826200027d565b67ffffffffffffffff811115620004ef57620004ee620000c8565b5b620004fb8254620002b7565b620005088282856200042d565b600060209050601f8311600181146200054057600084156200052b578287015190505b620005378582620004aa565b865550620005a7565b601f1984166200055086620002ec565b60005b828110156200057a5784890151825560018201915060208501945060208101905062000553565b868310156200059a578489015162000596601f8916826200048a565b8355505b6001600288020188555050505b505050505050565b61098e80620005bf6000396000f3fe60806040526004361061004e5760003560e01c80630df91de21461005a57806312065fe0146100855780638da5cb5b146100b0578063a4136862146100db578063cfae32171461010457610055565b3661005557005b600080fd5b34801561006657600080fd5b5061006f61012f565b60405161007c9190610303565b60405180910390f35b34801561009157600080fd5b5061009a610135565b6040516100a79190610303565b60405180910390f35b3480156100bc57600080fd5b506100c561013d565b6040516100d2919061035f565b60405180910390f35b3480156100e757600080fd5b5061010260048036038101906100fd91906104d4565b610163565b005b34801561011057600080fd5b50610119610258565b604051610126919061059c565b60405180910390f35b60015481565b600047905090565b600260009054906101000a900473ffffffffffffffffffffffffffffffffffffffff1681565b6000808054610171906105ed565b80601f016020809104026020016040519081016040528092919081815260200182805461019d906105ed565b80156101ea5780601f106101bf576101008083540402835291602001916101ea565b820191906000526020600020905b8154815290600101906020018083116101cd57829003601f168201915b50505050509050816000908161020091906107ca565b5060016000815480929190610214906108cb565b91905055507f50d94dcb6b52dafbb8d6fc46a11ab8594728949a6907b2e2f08de09dc78ce53d81833360405161024c93929190610913565b60405180910390a15050565b606060008054610267906105ed565b80601f0160208091040260200160405190810160405280929190818152602001828054610293906105ed565b80156102e05780601f106102b5576101008083540402835291602001916102e0565b820191906000526020600020905b8154815290600101906020018083116102c357829003601f168201915b5050505050905090565b6000819050919050565b6102fd816102ea565b82525050565b600060208201905061031860008301846102f4565b92915050565b600073ffffffffffffffffffffffffffffffffffffffff82169050919050565b60006103498261031e565b9050919050565b6103598161033e565b82525050565b60006020820190506103746000830184610350565b92915050565b6000604051905090565b600080fd5b600080fd5b600080fd5b600080fd5b6000601f19601f8301169050919050565b7f4e487b7100000000000000000000000000000000000000000000000000000000600052604160045260246000fd5b6103e182610398565b810181811067ffffffffffffffff82111715610400576103ff6103a9565b5b80604052505050565b600061041361037a565b905061041f82826103d8565b919050565b600067ffffffffffffffff82111561043f5761043e6103a9565b5b61044882610398565b9050602081019050919050565b82818337600083830152505050565b600061047761047284610424565b610409565b90508281526020810184848401111561049357610492610393565b5b61049e848285610455565b509392505050565b600082601f8301126104bb576104ba61038e565b5b81356104cb848260208601610464565b91505092915050565b6000602082840312156104ea576104e9610384565b5b600082013567ffffffffffffffff81111561050857610507610389565b5b610514848285016104a6565b91505092915050565b600081519050919050565b600082825260208201905092915050565b60005b8381101561055757808201518184015260208101905061053c565b60008484015250505050565b600061056e8261051d565b6105788185610528565b9350610588818560208601610539565b61059181610398565b840191505092915050565b600060208201905081810360008301526105b68184610563565b905092915050565b7f4e487b7100000000000000000000000000000000000000000000000000000000600052602260045260246000fd5b6000600282049050600182168061060557607f821691505b602082108103610618576106176105be565b5b50919050565b60008190508160005260206000209050919050565b60006020601f8301049050919050565b600082821b905092915050565b6000600883026106807fffffffffffffffffffffffffffffffffffffffffffffffffffffffffffffffff82610643565b61068a8683610643565b95508019841693508086168417925050509392505050565b6000819050919050565b60006106c76106c26106bd846102ea565b6106a2565b6102ea565b9050919050565b6000819050919050565b6106e1836106ac565b6106f56106ed826106ce565b848454610650565b825550505050565b600090565b61070a6106fd565b6107158184846106d8565b505050565b5b818110156107395761072e600082610702565b60018101905061071b565b5050565b601f82111561077e5761074f8161061e565b61075884610633565b81016020851015610767578190505b61077b61077385610633565b83018261071a565b50505b505050565b600082821c905092915050565b60006107a160001984600802610783565b1980831691505092915050565b60006107ba8383610790565b9150826002028217905092915050565b6107d38261051d565b67ffffffffffffffff8111156107ec576107eb6103a9565b5b6107f682546105ed565b61080182828561073d565b600060209050601f8311600181146108345760008415610822578287015190505b61082c85826107ae565b865550610894565b601f1984166108428661061e565b60005b8281101561086a57848901518255600182019150602085019450602081019050610845565b868310156108875784890151610883601f891682610790565b8355505b6001600288020188555050505b505050505050565b7f4e487b7100000000000000000000000000000000000000000000000000000000600052601160045260246000fd5b60006108d6826102ea565b91507fffffffffffffffffffffffffffffffffffffffffffffffffffffffffffffffff82036109085761090761089c565b5b600182019050919050565b6000606082019050818103600083015261092d8186610563565b905081810360208301526109418185610563565b90506109506040830184610350565b94935050505056fea264697066735822122043c25ed790b1696e8ea99fe3104bd8602135f21b021442d8ae827e4936ab6b8464736f6c63430008180033",
  "linkReferences": {},
  "deployedLinkReferences": {}
}